:020000024000BC
:10000000581E022059A30400CFDD050045A30400BB
:1000100045A3040045A3040045A3040045A3040030
:1000200000000000000000000000000031A50400F6
:1000300045A304000000000085A4040045A30400BB
:1000400041A7040041A7040041A7040041A7040000
:1000500041A7040041A7040041A7040041A70400F0
:1000600041A7040041A7040041A7040041A70400E0
:1000700041A7040041A7040041A7040041A70400D0
:1000800041A7040041A7040041A7040041A70400C0
:1000900041A7040041A7040041A7040041A70400B0
:1000A00041A7040041A7040041A7040041A70400A0
:1000B00041A7040041A7040041A7040041A7040090
:1000C00041A7040041A7040041A7040041A7040080
:1000D00041A7040041A7040041A7040041A7040070
:1000E00041A7040041A7040041A7040041A7040060
:1000F00041A7040041A7040041A7040041A7040050
:1001000041A7040041A7040041A7040041A704003F
:1001100041A7040041A7040041A7040041A704002F
:1001200041A7040041A7040041A7040041A704001F
:1001300041A7040041A7040041A7040041A704000F
:1001400041A70400000000000000000000000000C3
:10015000000000000000000000000000000000009F
:10016000000000000000000000000000000000008F
:10017000000000000000000000000000000000007F
:10018000000000000000000000000000000000006F
:10019000000000000000000000000000000000005F
:1001A000000000000000000000000000000000004F
:1001B000000000000000000000000000000000003F
:1001C000000000000000000000000000000000002F
:1001D000000000000000000000000000000000001F
:1001E000000000000000000000000000000000000F
:1001F00000000000000000000000000000000000FF
:10020000DEE61E284CBBCE8F025B00003C000000E7
:1002100010D60200010000000000040000000400ED
:10022000FFFF02910000000000000000000000003D
:0C023000000000000000000000000000C2
:1002400081F0004102E000BF83F0004330B54FEA87
:1002500041044FEA430594EA050F08BF90EA020FF4
:100260001FBF54EA000C55EA020C7FEA645C7FEA87
:10027000655C00F0E2804FEA5454D4EB5555B8BFAA
:100280006D420CDD2C4480EA020281EA030382EA1B
:10029000000083EA010180EA020281EA0303362DAD
:1002A00088BF30BD11F0004F4FEA01314FF4801C80
:1002B0004CEA113102D0404261EB410113F0004F92
:1002C0004FEA03334CEA133302D0524263EB430349
:1002D00094EA050F00F0A780A4F10104D5F1200EE7
:1002E0000DDB02FA0EFC22FA05F2801841F1000142
:1002F00003FA0EF2801843FA05F359410EE0A5F116
:1003000020050EF1200E012A03FA0EFC28BF4CF046
:10031000020C43FA05F3C01851EBE37101F00045FC
:1003200007D54FF0000EDCF1000C7EEB00006EEB09
:100330000101B1F5801F1BD3B1F5001F0CD3490893
:100340005FEA30004FEA3C0C04F101044FEA4452EA
:1003500012F5800F80F09A80BCF1004F08BF5FEA71
:10036000500C50F1000041EB045141EA050130BD51
:100370005FEA4C0C404141EB0101013C28BFB1F563
:10038000801FE9D291F0000F04BF01460020B1FAAE
:1003900081F308BF2033A3F10B03B3F120020CDA81
:1003A0000C3208DD02F1140CC2F10C0201FA0CF05F
:1003B00021FA02F10CE002F11402D8BFC2F1200CC4
:1003C00001FA02F120FA0CFCDCBF41EA0C0190407A
:1003D000E41AA2BF01EB0451294330BD6FEA0404C3
:1003E0001F3C1CDA0C340EDC04F11404C4F12002AE
:1003F00020FA04F001FA02F340EA030021FA04F3C0
:1004000045EA030130BDC4F10C04C4F1200220FA16
:1004100002F001FA04F340EA0300294630BD21FA54
:1004200004F0294630BD94F0000F83F4801306BF1A
:1004300081F480110134013D4EE77FEA645C18BF0E
:100440007FEA655C29D094EA050F08BF90EA020FA5
:1004500005D054EA000C04BF1946104630BD91EA9D
:10046000030F1EBF0021002030BD5FEA545C05D1A0
:100470004000494128BF41F0004130BD14F58004DF
:100480003CBF01F5801130BD01F0004545F0FE4153
:1004900041F470014FF0000030BD7FEA645C1ABF88
:1004A000194610467FEA655C1CBF0B46024650EABF
:1004B000013406BF52EA033591EA030F41F40021EB
:1004C00030BD00BF90F0000F04BF0021704730B571
:1004D0004FF4806404F132044FF000054FF0000146
:1004E00050E700BF90F0000F04BF0021704730B507
:1004F0004FF4806404F1320410F0004548BF4042DC
:100500004FF000013EE700BF42004FEAE2014FEA30
:1005100031014FEA02701FBF12F07F4393F07F4F0B
:1005200081F06051704732F07F4208BF704793F00E
:100530007F4F04BF41F40021704730B54FF4607421
:1005400001F0004521F000411CE700BF50EA010224
:1005500008BF704730B54FF000050AE050EA0102CD
:1005600008BF704730B511F0004502D5404261EB3D
:1005700041014FF4806404F132045FEA915C3FF47E
:10058000D8AE4FF003025FEADC0C18BF03325FEA1B
:10059000DC0C18BF033202EBDC02C2F1200300FACC
:1005A00003FC20FA02F001FA03FE40EA0E0021FAF1
:1005B00002F11444BDE600BF70B54FF0FF0C4CF4DF
:1005C000E06C1CEA11541DBF1CEA135594EA0C0F91
:1005D00095EA0C0F00F0DEF82C4481EA030621EACC
:1005E0004C5123EA4C5350EA013518BF52EA033507
:1005F00041F4801143F4801338D0A0FB02CE4FF0B9
:100600000005E1FB02E506F00042E0FB03E54FF0E8
:100610000006E1FB03569CF0000F18BF4EF0010EE0
:10062000A4F1FF04B6F5007F64F5407404D25FEADC
:100630004E0E6D4146EB060642EAC62141EA55518F
:100640004FEAC52040EA5E504FEACE2EB4F1FD0CD1
:1006500088BFBCF5E06F1ED8BEF1004F08BF5FEA4F
:10066000500E50F1000041EB045170BD06F0004601
:1006700046EA010140EA020081EA0301B4EB5C04AE
:10068000C2BFD4EB0C0541EA045170BD41F48011A6
:100690004FF0000E013C00F3AB8014F1360FDEBFCB
:1006A000002001F0004170BDC4F10004203C35DAA7
:1006B0000C341BDC04F11404C4F1200500FA05F32A
:1006C00020FA04F001FA05F240EA020001F00042CB
:1006D00021F0004110EBD37021FA04F642EB060141
:1006E0005EEA430E08BF20EAD37070BDC4F10C046B
:1006F000C4F1200500FA04F320FA05F001FA04F22F
:1007000040EA020001F0004110EBD37041F100011A
:100710005EEA430E08BF20EAD37070BDC4F1200525
:1007200000FA05F24EEA020E20FA04F301FA05F28D
:1007300043EA020321FA04F001F0004121FA04F235
:1007400020EA020000EBD3705EEA430E08BF20EA05
:10075000D37070BD94F0000F0FD101F0004640003F
:1007600041EB010111F4801F08BF013CF7D041EAC1
:10077000060195F0000F18BF704703F000465200C5
:1007800043EB030313F4801F08BF013DF7D043EA96
:100790000603704794EA0C0F0CEA135518BF95EA4C
:1007A0000C0F0CD050EA410618BF52EA4306D1D1D3
:1007B00081EA030101F000414FF0000070BD50EAF2
:1007C000410606BF1046194652EA430619D094EA7C
:1007D0000C0F02D150EA013613D195EA0C0F05D166
:1007E00052EA03361CBF104619460AD181EA0301BA
:1007F00001F0004141F0FE4141F470014FF0000072
:1008000070BD41F0FE4141F4780170BD70B54FF00C
:10081000FF0C4CF4E06C1CEA11541DBF1CEA13558C
:1008200094EA0C0F95EA0C0F00F0A7F8A4EB05046E
:1008300081EA030E52EA03354FEA013100F0888065
:100840004FEA03334FF0805545EA131343EA12632E
:100850004FEA022245EA111545EA10654FEA0026E3
:100860000EF000419D4208BF964244F1FD0404F59C
:10087000407402D25B084FEA3202B61A65EB0305F8
:100880005B084FEA32024FF480104FF4002CB6EBB5
:10089000020E75EB030E22BFB61A754640EA0C0035
:1008A0005B084FEA3202B6EB020E75EB030E22BF75
:1008B000B61A754640EA5C005B084FEA3202B6EBB6
:1008C000020E75EB030E22BFB61A754640EA9C0075
:1008D0005B084FEA3202B6EB020E75EB030E22BF45
:1008E000B61A754640EADC0055EA060E18D04FEA03
:1008F000051545EA16754FEA06164FEAC30343EAA3
:1009000052734FEAC2025FEA1C1CC0D111F4801F6F
:100910000BD141EA00014FF000004FF0004CB6E768
:1009200011F4801F04BF01430020B4F1FD0C88BF07
:10093000BCF5E06F3FF6AFAEB5EB030C04BFB6EB12
:10094000020C5FEA500C50F1000041EB045170BD05
:100950000EF0004E4EEA113114EB5C04C2BFD4EB32
:100960000C0541EA045170BD41F480114FF0000EB6
:10097000013C90E645EA060E8DE60CEA135594EA32
:100980000C0F08BF95EA0C0F3FF43BAF94EA0C0F35
:100990000AD150EA01347FF434AF95EA0C0F7FF4AA
:1009A00025AF104619462CE795EA0C0F06D152EAFE
:1009B00003353FF4FDAE1046194622E750EA4106E2
:1009C00018BF52EA43067FF4C5AE50EA41047FF4F3
:1009D0000DAF52EA43057FF4EBAE12E74FF0FF3C58
:1009E00006E000BF4FF0010C02E000BF4FF0010C29
:1009F0004DF804CD4FEA410C7FEA6C5C4FEA430CA2
:100A000018BF7FEA6C5C1BD001B050EA410C0CBFF0
:100A100052EA430C91EA030F02BF90EA020F002052
:100A2000704710F1000F91EA030F58BF994208BFB9
:100A300090422CBFD8176FEAE37040F00100704776
:100A40004FEA410C7FEA6C5C02D150EA013C07D1CD
:100A50004FEA430C7FEA6C5CD6D152EA033CD3D018
:100A60005DF8040B704700BF8446104662468C4612
:100A70001946634600E000BF01B5FFF7B7FF002845
:100A800048BF10F1000F01BD4DF808EDFFF7F4FF6E
:100A90000CBF012000205DF808FB00BF4DF808EDF9
:100AA000FFF7EAFF34BF012000205DF808FB00BF1C
:100AB0004DF808EDFFF7E0FF94BF012000205DF83E
:100AC00008FB00BF4DF808EDFFF7CEFF94BF0120F3
:100AD00000205DF808FB00BF4DF808EDFFF7C4FFEC
:100AE00034BF012000205DF808FB00BF4FEA410C35
:100AF0007FEA6C5C02D150EA013C0AD14FEA430C18
:100B00007FEA6C5C02D152EA033C02D14FF0000054
:100B100070474FF0010070474FEA410212F5001292
:100B200015D211D56FF47873B3EB625212D94FEA34
:100B3000C12343F0004343EA505311F0004F23FA1E
:100B400002F018BF404270474FF00000704750EA73
:100B5000013005D111F0004008BF6FF00040704730
:100B60004FF00000704700BF4A0011D212F500128A
:100B700011D20DD56FF47873B3EB62520ED44FEAF5
:100B8000C12343F0004343EA505323FA02F0704775
:100B90004FF00000704750EA013002D14FF0FF30B3
:100BA00070474FF0000070474FEA4102B2F1E04356
:100BB00024BFB3F5001CDCF1FE5C0DD901F0004C44
:100BC0004FEAC0024CEA5070B2F1004F40EB830094
:100BD00008BF20F00100704711F0804F21D113F1C0
:100BE0003872BCBF01F00040704741F480114FEAF9
:100BF0005252C2F11802C2F1200C10FA0CF320FA82
:100C000002F018BF40F001004FEAC1234FEAD3239E
:100C100003FA0CFC40EA0C0023FA02F34FEA430308
:100C2000CCE77FEA625307D150EA01331EBF4FF091
:100C3000FE4040F44000704701F0004040F0FE40AC
:100C400040F40000704700BF7BB972B90029BEBFF5
:100C500000204FF0004106E008BF00281CBF6FF0E5
:100C600000414FF0FF3000F057B8ADF1080C6DE9CE
:100C700004CE002909DB002B1ADB00F061F8DDF857
:100C800004E0DDE9022304B07047404261EB41011A
:100C9000002B1BDB00F054F8DDF804E0DDE9022353
:100CA00004B0404261EB4101524263EB43037047A1
:100CB000524263EB430300F043F8DDF804E0DDE962
:100CC000022304B0404261EB41017047524263EBA2
:100CD000430300F035F8DDF804E0DDE9022304B059
:100CE000524263EB4303704753B94AB9002908BF26
:100CF00000281CBF4FF0FF314FF0FF3000F00CB860
:100D0000ADF1080C6DE904CE00F01AF8DDF804E04E
:100D1000DDE9022304B07047704700BF10F8012BD3
:100D200011F8013B012A28BF9A42F7D0D01A704728
:100D3000034613F8012B002AFBD1181A013870471B
:100D40002DE9F04786468C460846089E15467446AF
:100D50001946002B40F0C1808542B2FA82F245D993
:100D60004AB1C2F1200300FA02FC954094402EFAE9
:100D700003F343EA0C0C4FEA154EA8B2230CBCFB5C
:100D8000FEF80EFB18CC08FB00F943EA0C4399452A
:100D900028D9EB1808F1FF3704D2994502D9A8F1F8
:100DA00002072B44A3EB0903A4B2B3FBFEFC0EFB2A
:100DB0001C330CFB00F044EA0344A04214D92C1964
:100DC0000CF1FF3304D2A04202D9ACF102032C444F
:100DD000241A43EA07401EB1D440002334607360F4
:100DE000BDE8F0874746DDE76346F1E792BB431B6A
:100DF00001214FEA154EAFB2200CB3FBFEFC0EFBF7
:100E00001C330CFB07F840EA0343984561D9EB1803
:100E10000CF1FF3004D2984502D9ACF102002B440A
:100E2000A3EB0803A4B2B3FBFEFC0EFB1C330CFBCC
:100E300007F744EA0344A7424DD92C190CF1FF33BC
:100E400004D2A74202D9ACF102032C44E41B43EACA
:100E50000040C0E7C2F120039540944020FA03F11E
:100E60002EFA03F34FEA154E9040AFB20343B1FBA5
:100E7000FEFC0EFB1C10190C0CFB07F841EA0041AC
:100E8000884522D969180CF1FF3004D2884502D96F
:100E9000ACF102002944A1EB08019BB2B1FBFEFCBE
:100EA0000EFB1C110CFB07F743EA01439F420ED9CE
:100EB000EB180CF1FF3104D29F4202D9ACF10201D0
:100EC0002B44DB1B41EA004193E76046E3E76146C0
:100ED000F7E76046A4E76346B8E7834206D916B948
:100EE000002108467CE7C6E900E0F9E7B3FA83F79A
:100EF0008FB9834201D3724508D8BEEB020460EB80
:100F0000030301209C461EB9002169E73846FAE731
:100F1000C6E9004CF8E7C7F1200CBB400EFA07F514
:100F200022FA0CF42EFA0CF1BA401C4320FA0CF30E
:100F3000B8404FEA144901431FFA84FEB3FBF9F8A5
:100F400009FB18300B0C08FB0EFA43EA00439A45E4
:100F500040D9E31808F1FF3004D29A4502D9A8F12C
:100F600002002344A3EB0A0389B2B3FBF9F809FB9F
:100F7000183308FB0EFE41EA03418E452CD9611857
:100F800008F1FF3304D28E4502D9A8F102032144AF
:100F900043EA0040A1EB0E01A0FB02984145CE467A
:100FA000434602D306D14D4504D20138B9EB020EB7
:100FB00068EB0403002EA7D0B5EB0E0261EB030132
:100FC00001FA0CFC22FA07F3F9404CEA0303C6E9E4
:100FD000003199E74046C5E74346D9E700000000E5
:100FE0002DE9F0478246B0B0C069FFF77BFACCA389
:100FF000D3E90023FFF70AFC8046DAF81800894697
:10100000FFF770FAC6A3D3E90023FFF7FFFBCDE992
:101010002401DAF82400FFF765FA0022BC4BFFF741
:10102000F5FBCDE92601DAF83C00FFF75BFA002278
:10103000B74BFFF7EBFBCDE92801DAF84000FFF7EB
:1010400051FAAFA3D3E90023FFF7E0FBCDE92A0172
:10105000DAF83000FFF746FA0022AD4BFFF7D6FB77
:10106000CDE92001DAF83400FFF73CFA0022A84B62
:10107000FFF7CCFBCDE92201DAF83800FFF732FAAE
:101080000022A34BFFF7C2FB0446DAF828000D4606
:10109000FFF718FA00229E4BFFF7B8FBCDE91E01BF
:1010A000DAF82C00FFF70EFA0022994BFFF7AEFB9F
:1010B00029F00047CDE92C014FF0FF324046394678
:1010C000944BFFF713FD38B94FF0FF3240463946D5
:1010D000904BFFF701FD18B14FF000084FF00009E9
:1010E000DDE9246323F000474FF0FF3230463946F4
:1010F000884BFFF7FBFC38B94FF0FF3230463946DA
:10110000844BFFF7E9FC18B19FED7F7B8DED247BCD
:10111000DDE9266323F000474FF0FF3230463946C1
:101120007C4BFFF7E3FC38B94FF0FF3230463946CD
:10113000784BFFF7D1FC18B19FED737B8DED267BCB
:10114000DDE9286323F000474FF0FF32304639468F
:10115000704BFFF7CBFC38B94FF0FF3230463946C1
:101160006C4BFFF7B9FC18B19FED677B8DED287BC9
:10117000DDE92A6323F000474FF0FF32304639465D
:10118000644BFFF7B3FC38B94FF0FF3230463946B5
:10119000604BFFF7A1FC18B19FED5B7B8DED2A7BC7
:1011A000DDE9206323F000474FF0FF323046394637
:1011B000584BFFF79BFC38B94FF0FF3230463946A9
:1011C000544BFFF789FC18B19FED4F7B8DED207BD1
:1011D000DDE9226323F000474FF0FF323046394605
:1011E0004C4BFFF783FC38B94FF0FF32304639469D
:1011F000484BFFF771FC18B19FED437B8DED227BCF
:1012000025F000474FF0FF3220463946414BFFF7AB
:101210006DFC38B94FF0FF32204639463D4BFFF7A1
:101220005BFC08B100240025DDE91E014FF0FF3210
:10123000384BFFF75BFC38B9DDE91E014FF0FF3298
:10124000344BFFF749FC18B19FED2F7B8DED1E7BD2
:10125000DDE92C014FF0FF322E4BFFF747FC38B988
:10126000DDE92C014FF0FF322A4BFFF735FC18B1B6
:101270009FED257B8DED2C7B274B4FF0FF32D3E983
:10128000006727F000432F932E96224BDDE92E01B5
:10129000FFF72CFC38B9DDE92E014FF0FF321D4B72
:1012A000FFF71AFC08B1002600274FF0FF324FF07D
:1012B000FF331A4815F08EFF9DED2C7B8DED1A7BC8
:1012C0009DED1E7B8DED187B9DED2A7B8DED167BB4
:1012D0009DED227B8DED127B9DED207B8DED107BB6
:1012E0009DED287B8DED0E7B9DED267B8DED0C7BA2
:1012F0009DED247BCDE91C6716E000BFAFF30080B5
:1013000000000000006AF84000000000000000003B
:1013100000408F40FFFFEF7F10560120C053012097
:1013200000000000D0126341CDE914459AF817304F
:101330004FF496710B939AF814308DED087BCDE93C
:1013400006890A939AF80A30124A04939AF80930E7
:10135000114803939AF8083002939AF807300193E2
:101360009AF806300093BAF8043018F073F9B0F523
:10137000967F034608DB0948026812F0060F03D087
:101380000221074A19F0CEFC064830B0BDE8F0470C
:1013900015F098BF8E650600D44F012060520120E1
:1013A00058660600C05301202DE9F04F82461746CB
:1013B0001C4600259FB00391387810B9284600F0EC
:1013C000A9BD252809D00399D0470028C0F2A285DD
:1013D0007B1C01350593059FEEE71822002110A81C
:1013E00022F0CBFA7B78252B00F0BC8000239846B6
:1013F0009E469C461846791C0E4611F8012B2B2A56
:1014000000F0E38000F2DA80202A00F0E180232A55
:1014100000F0E1802BB19DF8483043F040038DF897
:101420004830B8F1000F05D09DF8483043F0200354
:101430008DF84830BEF1000F05D09DF8483043F0DC
:1014400010038DF84830BCF1000F05D09DF84830EE
:1014500043F008038DF8483028B19DF8483043F038
:1014600004038DF848309DF8483003F044014429C6
:1014700003D16FF386138DF848309DF848302A2A3F
:1014800043F080030E968DF8483040F0A9809DF817
:10149000493043F001038DF84930731C1A782E2A25
:1014A0000CBF012100219DF8492061F341028DF814
:1014B00049200CD15A1C0E925A782A2A40F0A0805A
:1014C0009DF84920023342F004028DF849201A7831
:1014D0006C2A00F0C18000F2A380682A00F0A98085
:1014E0006A2A00F0C2804C2A00F0C78013F8012B52
:1014F000782A05938DF84B2000F209816D2A00F2BD
:10150000C980692A00F20381572A00F2E280412A49
:1015100004D0A2F14503022B00F2F98004219DF8CA
:101520004A3002F0DF02A2F1410961F30203D9F16E
:1015300000029DF8491042EB090262F3C7110A0646
:101540008DF84A308DF84910CBB200F11F8103F0BD
:101550007802182A40F009816FF3C6038DF84930EC
:101560000023F8E08DF84B30BB1C05939DF8493003
:101570009DF84A20DE0702F0070040F1098154F887
:10158000041B0029049108DA9DF8481041F0040179
:101590008DF84810049949420491590740F100819F
:1015A00054F8046B002E80F2FF809DF849306FF3F1
:1015B00041038DF849304FF0FF36F5E02D2A0DD06C
:1015C000302A7FF427AF012316E74FF0010C13E711
:1015D0004FF0010E10E74FF001080DE701200BE777
:1015E0000EA804F0A5FC0E9BB3423FF457AF9DF844
:1015F00048201390C00F60F341028DF848204DE75A
:101600000EA804F095FC9DF848301490C3F34002F6
:1016100042EAD07262F341038DF848300E9B56E7E0
:10162000742A26D07A2A7FF461AF06219DF84920DA
:101630000CE05A78682A9DF8492006D1012161F30F
:10164000C6028DF84920023350E7022161F3C60239
:101650008DF84920013349E75A786C2A9DF84920D2
:1016600001D10421EBE70321F0E705219DF8492092
:10167000ECE707219DF84920E8E7BDF8482022F46F
:10168000F04222F0020242F4804242F00202ADF83F
:101690004820DFE76E3AD3B201229A4040F28243FB
:1016A0001A429DF8493039D112F0240F61D1D10787
:1016B0002DD503219DF84A2003F07803A3F14008BB
:1016C00061F30202D8F100038DF84A2043EB0803CE
:1016D00041E00120A2F15801C9B200FA01F111F470
:1016E000624F7FF41BAF40F6010319429DF8493069
:1016F0001AD111F4043F0AD09DF84A2060F3020287
:1017000003F07803402B8DF84A207FF429AF9DF831
:10171000483043F001038DF8483021E702219DF85D
:101720004A2061F30202EBE702209DF84A1003F021
:10173000780360F30201402B8DF84A1002BF9DF838
:10174000481041F001018DF84810632A7FF408AF7A
:10175000003B18BF01239DF84820C2F340010B4312
:1017600063F341028DF8482000E713F0380FCED123
:10177000F6E603219DF84A2013F0780F61F3020288
:1017800014BF012300238DF84A20E4E70123E2E798
:101790009DF948100029ACBF4FF0FF311399FBE6CB
:1017A0009E077FF508AF149E00230428CDE913336C
:1017B0009DF8493007D1990705D49DF949100029B2
:1017C000ACBF06260D2602F00702012AC3F3C303AD
:1017D00032D1DA1E042A04D8DFE802F02045452081
:1017E00020002268012B4FEAE271CDE910211BD1C4
:1017F0009DF94020D117CDE9102104349DF84820EF
:10180000069292074FD03A465046059B039919F02D
:1018100050FF0028C0F27E830544DCE554F8042B19
:10182000D117CDE91021E9E7022BE6D111B242F33D
:10183000C032CDE91012E0E7022A24D1DA1E042AD0
:1018400004D8DFE802F0181010181800012B4FF030
:10185000000154F8042B14D0022BCDE91021CDD176
:1018600092B21092CAE7073424F00704F4E80201A8
:10187000CDE91001C2E754F8042B10920022119216
:10188000BCE7D2B2CDE7042A08D1073424F007041C
:10189000D4E900010834CDE91001AFE7032AADD146
:1018A00054F8042BDDE79DF84B80B8F1780F3FF634
:1018B00092ADB8F1570F5CD8B8F1250F00F0A480B5
:1018C000B8F1240F7FF687ADB8F1410F04D0A8F12D
:1018D0004503022B3FF67FADDDE91023002BC0F25C
:1018E0004D810699080700F14C81C1F300194FEAB8
:1018F0004919C3F30A51C3F31303002940F044818B
:1019000052EA030014BF4FF0010C4FF0000CD80254
:1019100040EA5250D702CDE90C70B8F1460F47EAC1
:10192000010740EAE17008BF4FF06608384300F055
:10193000B781BCF1000F10D01B0343EA1253170309
:101940003A4618464FF0000C002880F25681BCF150
:10195000000F40F05981CDE90C730D9BA1F2FE3BC5
:1019600043F000430D930021DDE90C230F460520D1
:1019700060E1A8F15802202A3FF62DAD01A151F8EF
:1019800022F000BF4F1B0400D7130400D71304003C
:10199000D7130400D7130400D7130400D71304008F
:1019A000D7130400D7130400D9180400D713040078
:1019B000FB1A04000F1B0400D9180400D9180400F6
:1019C000D9180400D71304000F1B0400D713040018
:1019D000D7130400D7130400D7130400551B0400C9
:1019E0004F1B04009F1A0400D7130400D7130400F0
:1019F000191A0400D71304004F1B0400D713040066
:101A0000D71304004F1B040040460399D047002819
:101A1000C0F280820135DEE4002E109F3BDB3146B0
:101A2000384622F06BF9002F3FF4D5AC4FF0000997
:101A30003E18F31B9DF84A2012F01001069100F0A9
:101A40005E82023312F04002DDF84C80089218BF2B
:101A5000149A434418BF9B18049ACDF81C80002A9E
:101A600040F36882D31A9DF8482004935007C2F3CC
:101A7000800B00F15F82510640F14F82B9F1000FF7
:101A800007D048460399D0470028C0F24382D94680
:101A90000135302242E23846FFF74AF9C6E710988E
:101AA000002800F027820DF175030093002117AB89
:101AB00012AA04F053FA4FF000090746BDF84A3065
:101AC00003F0EF0343F4F04343F01003ADF84A3062
:101AD000002E0CDB9DF848200DF17503DB1B6FF326
:101AE00086129E428DF8482001D9F31A1393002FD5
:101AF0003FF471AC0DF175066DE0109B4FF00009DD
:101B00008DF85C300DF15D06012317AF92E7069B5F
:101B10001F0754BFC3F300194FF02B09DDE9102351
:101B200058BF4FEA4919002B06DA4FF02D095242EF
:101B300063EB4303CDE91023DDE910010DF17503DB
:101B4000009312AA17AB04F009FA0746C0E74FF05A
:101B50000009F1E7109A072B3FF63DACDFE803F0F0
:101B60000C04060C08080C0C157034E4158032E4E3
:101B7000EB17C2E900532EE415602CE44FF02D0959
:101B8000B7E64FF02B09B4E640F2FF70814231D145
:101B9000A34908F101085FFA88F811F80810134307
:101BA00001F003011ED101290BBF492369234E21F6
:101BB0006E210CBF462266228DF85C309DF84830BD
:101BC0008DF85D106FF386138DF85E208DF8483028
:101BD0000DF15F0617AFF31BB9F1000F3FF42AAF09
:101BE000013327E7012915BF6E234E2361214121CF
:101BF0001A46E1E74FF0000C89E692184FF0010C0D
:101C000001F1FF3140419FE6CDE90C20A5E65208E5
:101C100042EAC3725B08B3F1333F59460BF1010B43
:101C2000F5D201F1020B012100FB03FCA2FB002312
:101C3000013F63441BF1020FE9DB09B1CDE90C233D
:101C4000DDE90C32BBF1000F2DDCCBF10401A1F179
:101C500020000BF11C0B02FA0BFB22FA00F0CA4029
:101C6000CB40079208F0DF0243EA0B03472A43EA1E
:101C700000037BD1F91C01DBBE422ADAA8F102087D
:101C8000002E5FFA88F87ADD9DF84820013E920622
:101C900075D4B6F1000B18BF4FF0010B721C26E093
:101CA0004FF0000B5FE6023342F100020CA80BF18B
:101CB000FF3B0137CDE90C3219F0CCFCDDE90C32E9
:101CC000DB185241002A0BF1FF3BF9DACDE90C3267
:101CD000B6E79DF84820F61B90064DD4B6F1000BF0
:101CE00018BF4FF0010BF2194FF066084AD4102AC2
:101CF000A8BF10229FED487B10208DED0E7B0B902E
:101D0000DDE90E01002A3FD1079A1B1842EB0101C1
:101D1000B1F1805F47D2CDE90C31069BB8F1660F77
:101D200003F0200240F0C680002F47DC30238DF8FE
:101D30005C30002A76D1002E40F3BD812E238DF831
:101D40005D3087B17B42B342A8BF3346002B13936B
:101D5000A6EB0306D4BF002301239DF84A2063F3BA
:101D600045128DF84A200DF15E0340E0B8F1660F90
:101D70004FF0000BB7D091E74FF0000BB3E74FF0F7
:101D8000000B8BE70022B5E7400840EAC170490824
:101D9000CDE90E010EA8CDE9082319F05BFC089AE5
:101DA000099B013AACE75B0843EAC1730CA84908F8
:101DB000CDE90C31013719F04DFCAEE717AB0B99AB
:101DC00000290BDD0BA90CA8CDE9063219F05AFC4D
:101DD000069B013F079A03F8010BF0D11397AAB9AC
:101DE000002E40F366812E2103F8011B0027002EF0
:101DF00021DD0B9A002A1EDD0BA90CA8069319F011
:101E000041FC069B013E03F8010BF0E72E2203F88C
:101E1000012BEBE7AFF3008000000000000000089A
:101E2000B7C206002E238DF85D30002F9BD0002E08
:101E300088DC0DF15E03BBF1000F4FD114961E46F6
:101E400008F0DF03452B24D1002FBABF7F422D239A
:101E50002B23632FC8BF64227370C4BFB7FBF2F398
:101E600002FB13774FF00A02C8BF03F13001B7FB42
:101E7000F2F3C8BFB17003F1300102FB137386F8AF
:101E8000008003F13003D4BF023603363170737023
:101E90000236139B002B2BDC149B002BD4BF00239A
:101EA00001239DF84A2063F3861200238DF84A200F
:101EB00033708FE60BA90CA8069219F0E3FB069A83
:101EC00030288DF85C0018BF07F1FF3712B9002EDB
:101ED00040F3F1802E238DF85D3044E71E4616F85E
:101EE000012C013B302AF9D02E2A08BF1E46A7E755
:101EF0000123D6E7714E81460523771F9AE5110726
:101F000048BF01339EE5104609920399D047002847
:101F1000099A05DA1FB0BDE8F08F2022DDF810B075
:101F2000594600290BF1FF3BEDDC049BCDF810B0C6
:101F30002B445D1AB9F1000F05D048460399D047EC
:101F40000028E7DB0135089B002B77D09DF949304D
:101F5000002B28DB3B46DFF8689118789B4619F880
:101F60000020013352073FD49DF84A30EF1B9806FA
:101F70005F4407D44246002A08F1FF383BDC079B48
:101F80003B449F1A9BF800002E280AD10399D047A2
:101F90000028BFDBB8F1000F07F1010731DC0BF1BE
:101FA000010B5D4638E0B94699F80000C846702834
:101FB00009F1010913D1EF1B149D47443D44EB1B6C
:101FC000002B33DC334642465046039919F071FB2F
:101FD00000289FDB3844049E0546064464E00399CC
:101FE000D0470028E0DA95E706930399D047002808
:101FF000069BB2DA8EE730200399D0470028B9DA81
:1020000088E730200399D04708F1FF38C0E70399EB
:10201000D0470028FFF67EAF2878A84619F8003090
:1020200001355907F3D4A7EB0B07C5E73020039917
:10203000D0470028FFF66EAF0137C0E79DF84A3061
:10204000DA0601D41B0706D530200399D0470028B3
:10205000FFF660AF0135069B3BB103999DF84B003D
:10206000D0470028FFF656AF0135A84406E03020DF
:102070000399D0470028FFF64DAF0135A8EB0503C3
:10208000002BF4DC33463A465046039919F011FB15
:102090000028FFF63FAF28449DE720200399D04752
:1020A0000028FFF637AF0135731B002BF5DCFFF777
:1020B00092B91746BFE60DF15D03BCE6D86D060088
:1020C000B8C20600000000002DE9F04706460F46A2
:1020D000904688B021F0F8F94FF47A73A0FB0345DD
:1020E00003FB0155E40B012F44EA45444FEAD53583
:1020F00007D122462B46304627491AF095FE00208C
:1021000012E0D8F8047025483946FEF707FE70B192
:1021100039462348FEF702FE48B130463A46214987
:102120001AF09EFE6FF0040008B0BDE8F08720466C
:1021300017A3D3E900232946FEF786FD05460C4682
:1021400010461946184A0023FEF77EFD80460F46CA
:10215000104619464EF660220023FEF775FD8246B2
:102160008946104619464FF47A720023FEF76CFD3B
:10217000CDE902A9CDE90623CDE904012A4623468B
:102180003046CDE9008709491AF04EFEB7E700BF97
:10219000005C260500000000587406006974060003
:1021A0006C7406007574060080EE36008D740600AF
:1021B000F0B58C4685B06C461E460369BCF1070F2E
:1021C000054617460FCB84E80F0032D8BCF1030F49
:1021D0003AD9002F40F0D1803388B3F5FA4F80F020
:1021E000B880B3F57A5F80F0B680B3F5FA5F80F01F
:1021F000B480B3F57A6F80F0B280B3F5FA6F80F0F7
:10220000B080B3F57A7F80F0AE80B3F5FA7F80F0CE
:10221000AC80C72B00F2AB80632B00F2AA80312B7D
:1022200000F2A980192B34BF0B230A238DF8053047
:1022300034E0BCF13F0F00F0EF807F4803685B079C
:1022400000F0E7807D49E2E0002F46D13388B3F506
:10225000FA4F28D2B3F57A5F27D2B3F5FA5F26D2C8
:10226000B3F57A6F25D2B3F5FA6F24D2B3F57A7F3E
:1022700023D2B3F5FA7F22D2C72B22D8632B22D8E0
:10228000312B22D8182B22D80B2B22D8052B22D861
:10229000032B34BF0E230D238DF802302146284630
:1022A0001DF026FF4FE00123F6E70223F4E70323A6
:1022B000F2E70423F0E70523EEE70623ECE70F231C
:1022C000EAE70723E8E70823E6E70923E4E70A2328
:1022D000E2E70B23E0E70C23DEE7072F2DD173683D
:1022E00057483668D917C6FB0031012B71F100023F
:1022F00017DB00F56E1000F65D70181841F1000153
:1023000049A3D3E90023FEF79FFCC0B20F2810D8E1
:10231000072810D8042834BF032302238DF8013086
:10232000BCE74848181861F100013FA3D3E9002336
:10233000E9E70023F2E70123F0E73F480368590784
:1023400003D16FF0850005B0F0BD3F491DF0AFFE31
:10235000F7E701236AE7022368E7032366E704231C
:1023600064E7052362E7062360E70F235EE70723A0
:102370005CE708235AE7092358E7072F42D173681F
:102380003068B4262E49DA17C0FB0132A3FB0601E0
:10239000012B06FB021172F100021FDB2B4BC01850
:1023A00041F1000122A3D3E90023FEF74DFC83B2E3
:1023B000B3F5FA6F1AD2B3F57A7F19D2B3F5FA7F73
:1023C00018D2F92B18D87C2B18D83D2B18D81F2BD6
:1023D00034BF072306238DF804305FE71C4BC01879
:1023E00061F1000112A3D3E90023DEE70023F2E745
:1023F0000123F0E70223EEE70323ECE70423EAE7F7
:102400000523E8E70C4803685A0702D00E491DF07F
:102410004EFE6FF0150096E70F2FF3D13368002BB7
:10242000F7DB02933AE700BF3AA3950000000000F3
:10243000D8EF2F000000000024520120679506000D
:1024400040420F00632EB5FF51950600ECF71700D0
:102450001408E8FF000000002DE9F04F914689B014
:10246000DFF8E4A098469DF84830402204460F4625
:102470004846514605931DF0ACFFDFF8D0B0054645
:102480001222594640461DF0A4FF00239D420646F5
:10249000CDE9063307DA4A46274920461AF0E0FC20
:1024A00009B0BDE8F08F002802DA42462349F4E77C
:1024B000A9B282B2BB68D3F80480B8F1000F13D080
:1024C000384606ABC04790B110F1160F02D1059BFC
:1024D000002BE5D000905BF8263020465AF82520E6
:1024E00017491AF0BDFCDBE76FF05700F2E70798D9
:1024F000FDF7F8FF0EA3D3E90023FEF787F9804626
:1025000006988946FDF7EEFF02460B4640464946CF
:10251000FDF79CFECDE902015BF8263020460093D2
:102520005AF825303A6807491AF070FCB8E700BF3E
:102530000000000080842E410F99060025990600B6
:102540003D9906006A990600684A0120204A012048
:102550002DE9F04F0028D3B09B46159106DA374994
:10256000586853B0BDE8F04F1AF07ABC1868836819
:102570005B69002B36D1324B1F930024314D324E14
:10258000324F1F9BDB680BB10C2C3AD10025304B2E
:102590001093ABB2119300230A2D219343D840F23C
:1025A0007773EB40DB0700F17482119A1F9BADF843
:1025B00080200022ADF882205B68209823AA22A9FF
:1025C00098470346002832D1229A802A40F23D8162
:1025D0008021CDE900212A461E49DBF804001AF0CB
:1025E0003FFC24E01FA998470028C6D0DBF8003044
:1025F00019491A68DBF804001AF032FC53B0BDE840
:10260000F08F1598A1B2984758B10C236343EB584B
:102610002246002B08BF33463946DBF804001AF087
:10262000F5FB0134ADE7119B253B022BBDD8109B78
:10263000013504333F2D1093ABD1DFE74E9C0600EC
:10264000045C0600745B06007E6906007B9C060045
:10265000684A0120979C06005B9C0600382224A84B
:10266000219121F08AF9119B23F00404A4B21F9B4D
:10267000ADF882609F68119B1598ADF8803032AB41
:1026800000932099012321AAB8470028DDF89880FB
:1026900000F3EF80DDE928014FEAE87A424653462D
:1026A000FEF722FBDDE924790646DDE92A015346DF
:1026B0004246FEF7C9FADBF8043004461393BDF82E
:1026C00048301493F319169349F100030F2D179313
:1026D00000F05E8100F23881119B23F00403032B8C
:1026E00002D00B2D40F08681DDE92C010123CDE9DC
:1026F00032799DF9C0704246ADF8D0305346CDE9ED
:1027000037648DF8D870FEF79FFA424653463990E9
:102710008146DDE92E01FEF797FA109BB04A1B684F
:1027200006461B93AF4B3A9012EA240238BF1A4672
:10273000002CB8BF6442002F189280F207817B42C0
:10274000DC400023E20F42EA4303002124F0004072
:102750001C93FDF7FBFE9EA3D3E90023FDF72CFF9E
:102760009DA3D3E90023FEF751F8FEF7FDF99C4A3B
:102770009C4B1D9012EA290238BF1A46B9F1000F8E
:10278000B8BFC9F10009002F199280F2EA807B429C
:1027900029FA03F000234FEAD079002120F000400D
:1027A00049EA4309FDF7D2FE89A3D3E90023FDF7E7
:1027B00003FF89A3D3E90023FEF728F8FEF7D4F935
:1027C000874A884B86EAE67412EA260238BF1A4620
:1027D000002F82461A92A4EBE67480F2CE80002687
:1027E0007B42DC4024F000400021FDF7AFFE78A3DF
:1027F000D3E90023FDF7E0FE77A3D3E90023FEF73A
:1028000005F8FEF7B1F91A9BE40FCDE90BA3199B6C
:102810000E9009931D9B44EA460408931C9B2A468C
:102820000793189BCDE901780693169B6E49049394
:10283000179B13980593149B0D9400931B9BCDF845
:1028400028901AF0E3FA129B01331293119ABDF803
:1028500048601F9BADF88020ADF8826020991B680E
:1028600015980DF17A029847014600283FF4F6AE1C
:10287000DDE60F2D2A9B08F10100DDE9282130D08B
:102880002DD8032C01D00B2D44D1B8F1000F03D16A
:10289000DDE93289CDE9248926909DF8D8008DF8AC
:1028A000C0003798101841F10001CDE9280138998E
:1028B0002B9A5B1842EBE172CDE92A3239992C9BB5
:1028C0002D9A5B1842EBE172CDE92C323A992E9B9E
:1028D0002F9A5B1842EBE172CDE92E32C7E6282D24
:1028E000D2E7B8F1000F03D1DDE93289CDE92489BF
:1028F0002690369810189DF8DC2041F1000102F076
:1029000001029A182B9BCDE9280143F10003CDE980
:102910002A23ACE6B8F1000F03D1DDE93289CDE915
:10292000248926909DF8D8008DF8C0003798121899
:1029300041F10001CDE9282138992B9A5B1842EB2F
:10294000E172CDE92A3292E6282DCBE6A7F12003E9
:10295000C7F1200204FA03F324FA02F21343BC4045
:10296000F0E6A7F12003C7F1200209FA03F329FAE0
:1029700002F2134309FA07F00DE7A7F12006C7F1A9
:10298000200304FA06F624FA03F31E43BC4029E7A9
:1029900001231C40ADF8D0309DF8DC30049464F382
:1029A00000038DF8DC30169BCDF804800293179B52
:1029B0002A460393149B0D4900930D4B1398DB6B30
:1029C000CDE9327936961AF021FA3CE7AFF3008070
:1029D0000000000080842E410000C0FFFFFFDF41A7
:1029E000287A0600D6770600EB9C0600519D06006B
:1029F000684A01200123ADF8D030109BCDE932792F
:102A0000CDE93764D3F80090294E2A4B9DF9C07068
:102A100016EA240638BF1E46002CB8BF6442002FB9
:102A20008DF8D87029DA4FF0000A7B42DC4024F0A0
:102A300000400021FDF78AFD19A3D3E90023FDF72B
:102A4000BBFD19A3D3E90023FDF7E0FEFEF78CF8E8
:102A5000169BE40F0493179B44EA4A040593149BC6
:102A6000089000932A464B46CDE90664CDE90178EB
:102A7000114913981AF0CAF9E5E6A7F1200AC7F13F
:102A8000200304FA0AFA24FA03F34AEA030ABC40D0
:102A9000CDE7109B0135043310937AE5AFF3008046
:102AA0000000000080842E410000C0FFFFFFDF41D6
:102AB000287A0600D67706009C9D060000000000DC
:102AC0002DE9F0412DED028B1F4605238AB00C46FF
:102AD000014605A8904602930EF06EFD012101AA61
:102AE00005A81EF0F3FB054670B145480368590779
:102AF00004D001212B46434A19F0BDFE28460AB0F6
:102B0000BDEC028BBDE8F081019BCBB1042B20D042
:102B1000052B0CBF0923FF232370032102AB03AA5B
:102B200005A81EF0DFFB0646A8B1354803685A0722
:102B300004D03346344A012119F09DFE3546DDE7C5
:102B4000DFED327A0023C4ED017A2370C4ED027AFE
:102B5000D4E70723E0E7029B002BF1D003A940460E
:102B600021F09FF80222314603A816F061FF237876
:102B7000C0B2092B22D0072B26D19FED258A254BE9
:102B800033F8100018B3FDF7ADFC1BA3D3E9002305
:102B9000FDF712FDFEF708F805236060029304219B
:102BA00002AB03AA05A81EF09DFB064688B1144897
:102BB00003685B07C2D0184A3346BCE79FED178A0B
:102BC000174B33F81000DDE79FED118AF8E7154841
:102BD000E2E703A9384621F064F80222314603A84F
:102BE00016F026FF421C02F0FF0307EE903AF8EEC3
:102BF000E77A67EE887AA9E77B14AE47E17A24404A
:102C000080520120FEAE060020AF0600000000004A
:102C10000AD7A33FE06106004CAF06000AD7234065
:102C2000C06106000AD7A3402DE9F04F476A97B06C
:102C30008346209E08910C92129355EC104B8DED1B
:102C4000000B7FB9102015F0BBFF0246CBF8240023
:102C500020B9A74BEA21A74817F014FEC0E9017775
:102C60000760C760DBF82430196859B15A6801233E
:102C7000584693404A608B6017F016FADBF8243010
:102C800000221A602B1EB7BF23F00043002301224D
:102C90000193A8BF3360019F974BB8BF3260BB431D
:102CA00019D142F20F73129A1360C7F3130323432F
:102CB00000F0DB85219B53B9904B21E0904B0393AF
:102CC0000833219A1360039817B0BDE8F08F8B4B3F
:102CD00003930333F5E79DED007B0022002351ECC5
:102CE000170B8DED0A7BFDF7CFFE804650B1012317
:102CF000129A1360219B13B1824B219A1360824B6D
:102D00000393E0E7C7F30A5614AA15A958469DEDA8
:102D10000A0B17F051FC0290002E76D00B9BA6F206
:102D2000FF36CDF84C80C3F3130343F07F53DDE946
:102D30000A0143F4401319460022744BFDF784FA4C
:102D400065A3D3E90023FDF737FC65A3D3E900238E
:102D5000FDF77CFA04460D463046FDF7C3FB62A33F
:102D6000D3E90023FDF728FC02460B4620462946FE
:102D7000FDF76CFA04460D46FDF7CEFE002207462D
:102D8000002320462946FDF789FE40B13846FDF76D
:102D9000A9FB22462B46FDF777FE00B9013F162F0F
:102DA00052D85B4B03EBC703DDE90A01D3E90023EB
:102DB000FDF774FE002849D0013F00231193149BB6
:102DC0009B1B5A1E4CBFC3F101030023079245BF52
:102DD0000693002306930793002F39DB079B109778
:102DE0003B44079300230993089B092B66D8052BC6
:102DF000C5BF043B002401240893089B023B032B1E
:102E000067D8DFE803F02D3A3859DDE914631E4432
:102E100006F23243202BC9BFC3F14003C3F12003A4
:102E20009F4006F21243D8BF04FA03F006F1FF36C2
:102E3000C4BF24FA03F347EA0300FDF743FB012272
:102E4000A1F1F873139276E70123B7E71190B6E783
:102E5000069BDB1B06937B42099300231093C3E779
:102E600000230D930C9B002B56DC012399461A4638
:102E700004930C920CE00123F3E700230D930C9BC9
:102E8000FB1803F1010904934B46012BB8BF012342
:102E9000DBF824000021042202F114059D423FD9F1
:102EA0004160584617F0C0F8039000283BD1194BF9
:102EB00002464FF4D571CEE60123DFE7012400235B
:102EC0000D9408934FF0FF33002299460493122388
:102ED000CFE701230D93F5E761436F63A787D23FE7
:102EE000B3C8608B288AC63FFB799F501344D33FF9
:102EF00004C406001BC406000000F07F00C40600E6
:102F0000F7C306008B8A06008A8A06000000F83F95
:102F1000A04E06008FC406000C9B99460493B7E7A9
:102F200001315200B8E7DBF82430B9F10E0F039AF3
:102F30001A606FD8002C6DD0002F36DD07F00F021D
:102F4000A04BF8054FEA271403EBC20393ED007B77
:102F50008DED0E7B17D59C4B04F00F044FF003084A
:102F6000D3E90823DDE90A01FDF750FCCDE90001B2
:102F7000954D5CB9DDE90E23DDE90001FDF746FC66
:102F8000CDE900012BE04FF00208F1E7E10709D598
:102F900008F10108DDE90E01D5E90023FDF70CFB7E
:102FA000CDE90E0164100835E3E700F007817C42AB
:102FB000844B854D4FF0020804F00F02241103EBFF
:102FC000C203DDE90A01D3E90023FDF7F5FA002386
:102FD000CDE90001002C40F0E580002BD0D1119B01
:102FE000DDE90045002B00F04C810022774B2046A4
:102FF0002946FDF753FD002800F04381B9F1000F89
:1030000000F03F81049B002B00F3E480DDE90A34EB
:10301000CDE90034159B002B02DB0E2F40F34282DA
:103020000D9A002A40F06782099C0025DDF818807F
:10303000B8F1000F0DD0079B002B0ADD4345069A1F
:10304000A8BF4346D21AA8EB03080692079AD31AE0
:103050000793099B0BB30D9B002B00F0A682002C5D
:1030600000F0A18229462246584617F047F9029AF5
:1030700001460546584617F097F802990646584605
:1030800017F012F8099B1B1B099300F09182099A13
:103090003146584617F032F902900121584617F090
:1030A0006DF8109B0446002B00F084821A460146FE
:1030B000584617F023F9089B0446012B03DC009BBC
:1030C000002B00F07C820026236904EB830318693F
:1030D00020F0CBFFC0F120001096079B184410F0A1
:1030E0001F0000F09182C0F12003042B40F3818285
:1030F000C0F11C00069B034480440693079B0344D5
:103100000793069B002B05DD1A460299584617F0D7
:103110004FF90290079B002B05DD21461A465846C1
:1031200017F046F90446119B002B00F076822146E9
:10313000029820F0E9FF002880F26F8200230A2223
:103140000299584616F0D2FF0D9B7E1E0290002B6E
:1031500000F05C82002329460A22584616F0C6FF7A
:10316000049B0546002B03DC089B022B00F35E82C8
:10317000B8F1000F05DD29464246584617F018F908
:103180000546109B002B00F0D0826968584616F067
:103190004BFF0746002840F07F820D4B024640F26D
:1031A000EA2158E5E20706D508F10108D5E9002330
:1031B000FDF702FA0123641008350BE74FF002080F
:1031C0000DE700BFA04E0600784E06000000F03F5D
:1031D0008FC4060020460022AC4B2946FDF7ECF9CF
:1031E0007E1E08F10108049CCDE900014046FDF770
:1031F00079F9DDE90023FDF7DFF9A54B0022FDF7A2
:1032000025F8A1F15073CDE90E010F93002C3BD1AD
:103210000022A04BDDE90001FDF716F802460B463F
:10322000CDE90023DDE90E23FDF756FC002840F030
:103230005781DDE90E2101F10043DDE90001FDF7D1
:103240002DFC00283FF4E2AE002425460C9BDDF85F
:103250000CA0DE434FF000082146584616F024FF2C
:10326000002D00F0A980B8F1000F05D0A84503D0CB
:103270004146584616F018FF2946584616F014FFE6
:103280009AE03E464C46B1E7834B03EBC40353E957
:103290000201039B1C440D9B002B4AD002460B46A7
:1032A00000207E49FDF7B2FADDE90E23FCF7CCFFE2
:1032B000DDF80CA0CDE90E01DDE90001FDF72CFCE5
:1032C0000546FDF70FF9024630350B46DDE90001F2
:1032D000FCF7BAFF0AF8015B02460B46CDE9000194
:1032E000DDE90E01FDF7F8FB002865D100206C49EF
:1032F000DDE90023FCF7A8FF02460B46DDE90E01DD
:10330000FDF7EAFB002840F00D81A24500F0EA80BD
:1033100000225E4BDDE90E01FDF74EF900225B4B0A
:10332000CDE90E01DDE90001FDF746F9CDE9000127
:10333000C2E7DDE90E23FDF73FF9A046DDF80CA05A
:10334000CDE90E01DDE90001FDF7E6FB0546FDF7DD
:10335000C9F8024630350B46DDE90001FCF774FF81
:103360000AF8015B02460B46A245CDE900234FF067
:10337000000223D1494BDDE90E01FCF767FF02464D
:103380000B46DDE90001FDF7A7FB002840F0CA80ED
:1033900000204249DDE90E23FCF756FF02460B46AA
:1033A000DDE90001FDF77AFB70B1C24608F1FF3894
:1033B0001AF8013C302BF8D0374655E0334BFDF777
:1033C000FBF8CDE90001BDE7DDE90A34CDE90034C1
:1033D000159B002BFFF628AE0E2F3FF725AE2E4B88
:1033E00003EBC70393ED007B0C9B002B8DED047B5F
:1033F00002DAB9F1000F64D0DDF80CA0DDE9004578
:10340000DDE9042320462946FDF700FAFDF784FB99
:103410000646FDF767F8DDE90423FDF7CDF802461F
:10342000204606F130040B462946FCF70DFF0AF84A
:10343000014B039C02460B46AAEB0404A14540F055
:103440008280FCF703FF04460D46DDE90423FDF707
:1034500043FB002865D120462946DDE90423FDF71A
:1034600013FB08B1F3075CD40299584616F01CFE12
:10347000002301378AF80030129B1F60219B002B2C
:103480003FF421ACC3F800A01DE400BF00002440BD
:1034900000001C4000001440A04E06000000E03F69
:1034A0000000F03FA24B03EBC70393ED007B0C9BA6
:1034B000002B8DED047B9FDAB9F1000F9CDC7FF4CB
:1034C000C3AE00229B4BDDE90401FDF775F8DDE991
:1034D0000023FDF7F7FA044600287FF4B5AE3E4618
:1034E0002546B4E0DDE90A34CDE90034159B002B14
:1034F00001DB0E2FD6DD089A012A36DC139A82B33F
:1035000003F23343099CDDF81880069A01215846DE
:103510001A440692079A1A44079216F02FFE05469F
:1035200086E53E4653469A4613F8012D392A06D1C0
:10353000039A9A42F7D13022039901360A701A7819
:1035400001321A7038E700227B4BFDF735F8002274
:10355000002304460D46FDF797FA00283FF450AFCC
:1035600082E7149BC3F13603CCE709F1FF34099BD2
:10357000A34208DBB9F1000FA3EB04040EDBDDF876
:1035800018804B46C1E7099B109AE31A0994DDF8AD
:10359000188000241A444B461092B6E7069BA3EB12
:1035A00009080023B1E7029E71E5099A029970E5C6
:1035B000029672E5089B012B17DC009BABB9019BBF
:1035C000C3F313039BB9019B23F00046360D360568
:1035D00036B1069B012601330693079B01330793FF
:1035E000109B002B7FF470AD1096012075E500262E
:1035F000F6E73FF486AD1C33069A1A4498440692C7
:10360000079A1A4407927CE50346F4E7049B002BD3
:103610002BDC089B022B09DC27E0B9F1000F1DDC35
:10362000089B022B1ADD3E46CDF81090049B002B20
:103630007FF40CAE21460522584616F057FD014690
:103640000446029820F060FD00287FF7FFADDDF80A
:103650000CA0312301360AF8013BFBE50D9B3E46E9
:10366000CDF81090002B7FF483AD039F2146029884
:1036700020F091FB039B00F13009049A07F8019BAD
:10368000FB1A9A4240F3CB8000230A220299584643
:1036900016F02CFD0290E9E72A6905F10C010C30C7
:1036A0000232920020F042F901223946584616F0C3
:1036B0007FFE039BA846054603F1010ADDE90323CB
:1036C00013440793009B03F0010309930AF1FF33AE
:1036D00021460298049320F05EFB4146069000F1DB
:1036E0003009029820F010FD2A4621460746584628
:1036F00016F0CAFEC268014602B3584616F0D4FC62
:10370000002F3ADA01220299584616F051FE21465E
:10371000029020F0F9FC002803DC29D119F0010FF8
:1037200026D0B9F1390F1DD132E02846C1E700BFDC
:10373000A04E060000001440000024400A900298A9
:1037400020F0E2FC0A990C90584616F0ADFC0C9A59
:103750005ABB089B53B9099B43B9B9F1390F17D02C
:10376000002F05DD069B03F1310901E0002F2ADA65
:10377000DDF810A00AF8019B6EE5089B3B4304D1DD
:10378000009B03F00103002BBCD0B9F1390F36D1F7
:10379000049F392307F8013BBA46013F1AF8013C60
:1037A000392B5AD001333B7056E5002F06DB089BBE
:1037B0003B4306D1009B03F0010313B9002AA1DCAF
:1037C000D6E7002AE1DC079B57460AF8019C5345DF
:1037D0002ED000230A220299584616F087FCA845ED
:1037E00002904FF000034FF00A02414658460BD1B9
:1037F00016F07CFC804605460AF1010A66E7DDF812
:1038000010A009F10109B5E716F070FC29468046C1
:1038100000230A22584616F069FC0546ECE7049B93
:103820004FF00008002BCCBF1F460127039B1F440D
:1038300001220299584616F0BBFD2146029020F065
:1038400063FC0028A8DC02D119F0010FA4D1BA460C
:1038500017F8013D302BFAD0FEE4039BBB429BD10D
:103860003123039A01361370F6E4219B002B7FF479
:1038700025AA014BFFF744BAF7C306000000000079
:1038800038B52DED028B55EC104B00F091F8224B22
:10389000B0EE408AF0EE608A93F90030013312D026
:1038A00045EC104B20F000FD68B12046294612A3DC
:1038B000D3E90023FDF710F960B11AF02BFB2223A6
:1038C0009FED0F8B0360B0EE480AF0EE680ABDEC86
:1038D000028B38BD0CA3D3E9002320462946FDF70F
:1038E000DDF80028EFD01AF015FB22239FED088B9E
:1038F0000360E8E7AFF30080EF39FAFE422E86401E
:10390000000000000000F07F51302DD5104987C025
:1039100000000000000000001F5101200000000016
:1039200038B52DED028B55EC104B00F0B1F91E4B64
:10393000B0EE408AF0EE608A93F9003001331AD07D
:1039400022462B4620462946FDF7D0F898B900229A
:10395000002320462946FDF7BFF860B90022002366
:1039600020462946FDF790F860B11AF0D3FA2223D9
:103970009FED0B8B0360B0EE480AF0EE680ABDECD9
:10398000028B38BD1AF0C6FA2123BDEC028B03600E
:103990000648BDE8384000F02FBB00BFAFF3008001
:1039A000000000000000F0FF1F510120D677060044
:1039B0002DE9FF4755EC104B25F00042AA49EE0FC8
:1039C0008A4233D9A9498A4214D82046294690A36D
:1039D000D3E90023FDF780F800BB204629468EA3DB
:1039E000D3E90023FDF75AF8002800F0A080002456
:1039F00000250EE0C5F313032246234307D02B46D0
:103A000020462946FCF722FC04460D4601E0002E24
:103A1000EDD145EC104B04B0BDE8F08780A3D3E9AD
:103A2000002310461946FCF7C7FDEDE7904B9A427C
:103A300040F2A9808F4B9A4279D88F4B2046294675
:103A4000F70003EBC603C6F1010AD3E90023FCF734
:103A5000FBFB8A4B804689463B44AAEB060A93ED62
:103A6000007B8DED007BDDE9002340464946FCF7F5
:103A7000EBFB04460D4622462B4620462946FCF722
:103A80009BFD06460F4668A3D3E90023FCF794FD8F
:103A900067A3D3E90023FCF7D7FB32463B46FCF78C
:103AA0008BFD65A3D3E90023FCF7D0FB32463B46F0
:103AB000FCF782FD62A3D3E90023FCF7C5FB324685
:103AC0003B46FCF779FD60A3D3E90023FCF7BEFB7E
:103AD00032463B46FCF770FD02460B46204629461F
:103AE000FCF7B2FB02460B4606460F462046294627
:103AF000FCF762FDCDE90201BAF1000F5CD10022B2
:103B00004FF0804330463946FCF79EFB02460B4699
:103B1000DDE90201FCF77AFE22462B46FCF794FB16
:103B200002460B4600205649FCF78EFB6CE7554BCE
:103B30002046294603EBC60645A3D3E90023FCF73C
:103B40003BFDD6E90023FCF781FBFCF7E5FF82464D
:103B5000FCF7C8FC06460F463FA3D3E90023FCF759
:103B60002BFD02460B4620462946FCF76DFB80469E
:103B70008946304639463AA3D3E90023FCF71CFDB9
:103B8000CDE900016FE7404B9A4210D82046294604
:103B900023A3D3E90023FCF759FB0022384BFCF7A1
:103BA0009BFF38B10022364B204629462AE74FF0CA
:103BB000000A60E782465EE732463B4600204FF04F
:103BC0008041FCF741FB02460B46DDE90201FCF7B0
:103BD0001DFE02460B46DDE90001FCF735FB4246BF
:103BE0004B46FCF731FB02460B4600202449FCF70C
:103BF0002BFB6FF47F72924502DB01EB0A5103E766
:103C00000AF57A7A00224FF0B87301EB0A510AE7FD
:103C1000EF39FAFE422E864051302DD5104987C02B
:103C20009C7500883CE4377ED0A4BE726937663E3E
:103C3000F16BD2C541BDBB3E2CDE25AF6A56113FAC
:103C400093BDBE166CC1663F3E5555555555C53F93
:103C5000FE822B654715F73F0000E0FE422EE63F4F
:103C6000763C7935EF39EA3D412E8640FFFFEF7F04
:103C7000422ED63FB1A2F03F784F0600684F0600B3
:103C80000000F03F884F0600FFFF2F3E00000000BD
:103C900051EC100BB1F5801F2DE9F04F0D4687B0A8
:103CA00026DA21F00043024603430AD10022002312
:103CB0000020CB49FCF7AAFD41EC100B07B0BDE892
:103CC000F08F002905DA0B46FCF7BEFA002200232C
:103CD000F0E7C44B0022FCF76FFC6FF035030D4694
:103CE000C14A954206DD02460B46FCF7AFFAE3E710
:103CF0000023F5E72C15C5F31305A4F2FF341C448B
:103D000005F5152303F6647303F4801383F07F52E3
:103D100004EB1354B54B82F4401242EA0501002231
:103D2000FCF792FAAB1C82468B46C3F313030022C6
:103D3000022B53DC0023FCF7A7FED0B1002C00F0CF
:103D400020812046FCF7CEFB06460F468EA3D3E922
:103D50000023FCF731FC04460D46304639468CA35F
:103D6000D3E90023FCF728FC02460B4620462946EF
:103D7000BBE789A3D3E9002350465946FCF71CFC56
:103D800002460B4600209A49FCF75EFA06460F46AB
:103D900052465B4650465946FCF70EFC02460B461F
:103DA00030463946FCF708FC06460F4614B9324641
:103DB0003B46A0E02046FCF795FB8046894672A36F
:103DC000D3E90023FCF7F8FB04460D46404649467C
:103DD0006FA3D3E90023FCF7EFFBA5E04FF080438E
:103DE000A5F5C226FCF732FA02460B465046594664
:103DF000C5F5D725FCF70AFDA6F27A465135CDE97F
:103E0000000120463543FCF76DFBDDE90023CDE9D9
:103E1000020110461946FCF7CFFB02460B46CDE9DE
:103E20000423FCF7C9FB804689465DA3D3E9002340
:103E3000FCF7C2FB5CA3D3E90023FCF707FA424678
:103E40004B46FCF7B9FB5AA3D3E90023FCF7FEF974
:103E500042464B46FCF7B0FB57A3D3E90023FCF7DF
:103E6000F5F9DDE90423FCF7A7FB55A3D3E900230B
:103E7000CDE9040140464946FCF79EFB52A3D3E935
:103E80000023FCF7E3F942464B46FCF795FB50A3B1
:103E9000D3E90023FCF7DAF942464B46FCF78CFBEA
:103EA00002460B46DDE90401FCF7D0F9002D8046FF
:103EB000894648DD00224E4B50465946FCF77CFBB4
:103EC00052465B46FCF778FB02460B4606460F4619
:103ED00040464946FCF7BAF9DDE90023FCF76CFBE4
:103EE0008046894664B902460B4630463946FCF79F
:103EF000ABF902460B4650465946FCF7A5F9DBE6FE
:103F000021A3D3E90023DDE90201FCF755FB0446B8
:103F10000D461FA3D3E90023DDE90201FCF74CFBAA
:103F200042464B46FCF792F902460B46304639466C
:103F3000FCF78AF952465B46FCF786F902460B46C7
:103F400020462946D9E702460B4650465946FCF71B
:103F50007BF9DDE90023FCF72FFB06460F46002C1A
:103F60003FF425AF08A3D3E90023DDE90201FCF704
:103F700023FB04460D4606A3D3E90023DDE9020135
:103F800029E79FED150B99E60000E0FE422EE63F83
:103F9000763C7935EF39EA3D555555555555D53F60
:103FA00044523EDF12F1C23FDE03CB966446C73F68
:103FB000599322942449D23F935555555555E53F81
:103FC0009FC678D0099AC33FAF788E1DC571CC3F8C
:103FD00004FA97999999D93F000000000000000069
:103FE000000050C300005043FFFFEF7F0000F03F90
:103FF0000000E03F000000009FED010B704700BF94
:10400000000000000000F87FF8B501F099F90021E8
:1040100040F6CD401FF0DEF9114817F0C4FA002039
:1040200002F0F0FA00240F4E0F4F104D00F0C2FDC9
:1040300000214FF400401FF0CDF9013431463846DD
:1040400017F0B1FA05FB04F2094BB3EBB20FEDD355
:10405000084817F0A8FA002002F0D4FAE6E700BFFB
:1040600006620600D44F012089BC0600EFEEEEEE9A
:10407000444444042B620600052307B58DF8043040
:1040800001238DF8050001A903488DF8063016F0CC
:1040900017FE03B05DF804FB1445060007B540BAEF
:1040A0000A46ADF8040001A9024816F01EFE03B04E
:1040B0005DF804FB1445060037B515481EF02AFECE
:1040C00010B340F203630225114801A9ADF8043092
:1040D0008DF8065016F0F4FD04460E48036854B9F6
:1040E00003F00703AB4203D903210B4A18F0BAFBD4
:1040F000204603B030BD13F0060FF9D0074A23461F
:10410000294618F0B8FBF3E76FF01204F0E700BFA0
:1041100014450600A4520120546206007C62060089
:1041200038B50546FFF7C8FF054B041E054928466C
:10413000224618BF194618F077FE204638BD00BF4A
:10414000BF6206009F62060008B5054803685B076A
:1041500003D00121034A18F085FB6FF0120008BD5F
:10416000A4520120D36206002DE9F04F2DED028B01
:10417000002397B00CAFFB753B767B76BB76FB7666
:104180003B777B77C9481EF0C5FDC94D98B92B68B0
:104190005A0704D001212846C64A18F063FB4FF4A1
:1041A00070220023C44813F00DFB2C37BD46BDEC34
:1041B000028BBDE8F08F4FF4A060FFF75DFF16F0B3
:1041C0007AFD07F1170140F21150FFF767FF40F247
:1041D0000150FFF751FF16F06EFD07F1180140F294
:1041E0001250FFF75BFF40F20250FFF745FF16F059
:1041F00062FD07F1190140F21350FFF74FFF40F243
:104200000350FFF739FF16F056FD40F2145007F146
:104210001A01FFF743FF07F11C0140F21550FFF7A9
:104220003DFF40F20750FFF727FF16F044FD40F234
:10423000195007F11B01FFF731FF07F11D0140F293
:104240001A50FFF72BFF40F20650FFF715FF16F04C
:1042500032FD41F205033B8441F205139348BB84D0
:1042600007F11E0207F1200116F03FFD002880F241
:10427000EA8000234FF0000B97F81C800FFA83FAB6
:10428000FB7D08F0030949EA83093B7EC8F38104FA
:1042900044EA830208EE902A14467A7EC8F301139A
:1042A00043EA820308EE103ABB7E7E7F4FEA9818FD
:1042B00048EA8308FB7E07F11F014FF4A26006F075
:1042C000030687F81FB046EA8306FFF7E7FEFB7F89
:1042D00087F820B01B0787F824B007F1200140F1D0
:1042E000C1804FF44270FFF7D9FE40F2093007F168
:1042F0002401FFF7D3FE97F82030F1EE006A07EEB5
:10430000103A97F82430B8EE477A07EE903AF8EE74
:10431000677A77EEA77A47EE267AB7EE047A67EEE9
:10432000877A07EE10AABAEEE87A67EE277A17EED8
:10433000900AFCF7E9F8C7E902014846FCF7C2F821
:1043400000225E4BFCF738F900225D4BFCF734F994
:10435000C7E900014046FCF7B5F80022574BFCF7CF
:104360002BF90022574BFCF727F980463046894647
:10437000FCF7A8F80022514BFCF71EF9524B002223
:10438000FCF71AF940F2FE33013CA4B29C4282468B
:104390008B4600F28880F8EEE87A9FED4C7AF7EED3
:1043A000008A87EE270A30EE680A16F0D3FADFEDAE
:1043B000487A9FED487A00EE677AC8EE877A9FEDDB
:1043C000467A77EEC77A17EE900AFCF79DF8B8EEBA
:1043D000C88ADFED427A9FED427A08EE677ACDE92E
:1043E0000A0117EE100AFCF78FF8CDE9080197EDE6
:1043F000027BCDE904AB8DED067BCDE9028997ED1B
:10440000007B384C8DED007B80212046364A15F02C
:1044100021F92B6803F00703022B7FF6C0AE6D462F
:1044200088B00CAA314BC2E905344FF40073938372
:104430002F4B42F8103F00234FF4E6511C4802F086
:1044400093FCAD46ABE6194807F11F0207F12401C2
:1044500016F04BFC0028FFF60CAFBA7FFB7F43EA57
:10446000022307E740F20A30FFF718FE40F20B3054
:1044700007F12401FFF712FE97F82030DFED1D6AE7
:1044800007EE103A97F82430B8EE477A07EE903AE4
:10449000F8EE677A67EEA67ADFED176A47EE267ABE
:1044A0009FED167A3BE7DFED167A8CE714450600A0
:1044B000A4520120E8620600E05501200000503FB0
:1044C000000014400080194000001C40000080449F
:1044D00093A198390FCF5B3B33938843D5E74A3F8D
:1044E000C355C543544F01200D630600B57806003F
:1044F000030000019A9919409A999940295C8F3FCD
:104500000000000008B509481EF004FC18B9BDE819
:104510000840FFF719BE064906481EF035FE002286
:104520000023044813F04EF9002008BD144506008E
:1045300069410400E055012037B51F481EF0EAFB31
:10454000002835D01D4B1C481A889B7801A9ADF86E
:1045500004208DF8063016F0B3FB041E184D0BDA5C
:104560002B685A0705D02346164A0121284618F021
:1045700082F9204603B030BD4FF410630E4801A904
:10458000ADF8043016F09CFB041E2B6804DA5B07C0
:10459000EFD00D4A2346E8E703F00703022B01D8CA
:1045A0000024E6E703212846084A18F05BF9F7E7FC
:1045B0006FF01204DDE700BF14450600E06306005B
:1045C000A45201206763060091630600B8630600E9
:1045D00037B5054617481EF09DFB40B340F2036314
:1045E000ADF804300023134801A98DF8063016F009
:1045F00067FB0446104803687CB903F00703022BED
:1046000003D903210D4A18F02DF90D4928462246F9
:1046100018F00AFC204603B030BD13F0060F04D09A
:1046200002212346074A18F026F90749EEE76FF002
:104630001204FAE714450600A4520120166406008D
:10464000E46306004064060003640600F0B5044617
:1046500083B00A3902AF25462E780134B52E52D1E7
:104660002678622E4FD16678052E4CD1A678012E81
:1046700015D16579954246D1A5799D4243D124480B
:10468000016801F00701022905D9009303211346AF
:10469000204A16F04DFB01200437BD46F0BD002E28
:1046A00031D1667996422ED1A6799E422BD1184CF3
:1046B0002168490724D00093012113462046164A59
:1046C00016F036FB23685A071AD001212046134AF8
:1046D00016F02CFB23685B0712D06C4688B002AA48
:1046E0000F4B10495361104B094893614FF400730D
:1046F00093830E4B42F8103F2B4616F015FBA54650
:104700004FF0FF30C8E7251A8D42A4D90020C3E737
:1047100060520120F8640600256506005265060017
:10472000B5780600401CA000826506000300000169
:1047300001280FD005280FD00A280FD00F280FD03E
:1047400014280FD019280FD105230622074802FB91
:10475000030070470023F8E70123F6E70223F4E79C
:104760000323F2E70423F0E70148704714610600D1
:10477000206106002DE9F843294F06463D680C46A6
:104780003DB3C5F1FC08884528BF8846DFF8A090F6
:104790000146424609EB050045441FF0C7F829468B
:1047A0004846204A3D6016F01FFB28B100234446CE
:1047B0003B602046BDE8F8837E2D0AD91A4803687D
:1047C00013F0060F03D00221184A16F0AFFA0023A7
:1047D0003B6021463046134A16F006FB0028E8D11C
:1047E000651E3319002D01DA0024E2E713F8012DCC
:1047F000B52A13D16A1C944210D95A78622A0DD175
:10480000A4EB0508B8F1630F08D8424608487119AF
:104810001FF08CF82C46C7F80080CAE7013DE1E79D
:104820003C830120E9AF0120605201207A66060036
:1048300045B001202DE9F04F83B0DFF880A1044698
:104840000E461546DAF8000000AF1EF063FA804607
:1048500050B952480368590703D00121504A16F055
:1048600065FA4FF000087DE0FB1DBA1D311FA01C4A
:1048700016F0A8FABA79A31903F8022CFA7921469E
:1048800003F8012CDAF80000324616F067FA034606
:10489000B8B1424802685207E3D06C468AB06A4613
:1048A000D3614FF400733F4913843F4BC2E90515B0
:1048B00042F8103F4FF41151002316F035FAA54687
:1048C000CFE716F03CFA8146DFF8F4B016F037FA7D
:1048D000A0EB0900B0F5FA7F14D33048036813F059
:1048E000060FBED06C4688B06A46304B4FF4E45198
:1048F000C2E905354FF4007393832D4B42F8103F06
:104900000023DAE740F26760002116F025FA4FF441
:1049100080725946DAF8000016F034FA064600288C
:10492000D4D14FF480715846E378A278FFF78EFE19
:1049300001281CD11948036803F00703022B11D981
:104940006C4688B06A461B4B4FF4E651C2E9053508
:104950004FF400739383164B42F8103F334616F022
:10496000E3F9A54640460C37BD46BDE8F08F01305F
:10497000ACD10A4803685B073FF473AF6C4688B05C
:104980006A460D4B4FF4E251C2E905354FF400730E
:104990009383074B42F8103F33468EE76052012065
:1049A0009D660600C6660600040000011867060042
:1049B00003000001DC660600ED660600E04501200C
:1049C00041B10120F0B587B00146FFF7B1FE0446C2
:1049D0001A48036803F00703022B06D96388184AB4
:1049E00000930B46032116F0A3F902AA1646154BB5
:1049F00003F10807154618685968083303C5BB4218
:104A00002A46F7D118689B882860AB8063880E4AD5
:104A10000E213046ADF80E30FFF70CFF00210446A2
:104A200040F6CD4016F098F90B21084A0848FFF7E8
:104A300001FF002808BF204607B0F0BD60520120EA
:104A400040670600204E06006D6706007667060088
:104A5000494F01202DE9F04F83B0C36B0446002B72
:104A600002AF0DDA4848026812F0060F03D00221A7
:104A7000464A16F057F900200437BD46BDE8F08FCE
:104A80001846FBF72FFD4FF0000A0022404BFBF7C2
:104A9000BDFEDFF81CB152465B4680468946FCF7F6
:104AA0001BF8F8B1384D2B6813F0060FE3D06E46B3
:104AB0008AB002AC374B002263614046002349466E
:104AC000FBF7C4FB22460623C4E90601C4E908AB90
:104AD0004FF4425142F8103F2846002316F024F9C3
:104AE000B546C8E72C49087800284AD025684E68A2
:104AF0002A4AAB1B9342BEBF03F1105303F5482370
:104B000003F5806313F1640F16DA1F48026812F090
:104B1000060FB0D06C468AB002AAC2E9075305233B
:104B20001F49C2E9051642F8103F4FF422510023F5
:104B300016F0FAF8A5469EE7CD68E3698968A26990
:104B40005B1A002B1749B8BF5B428B420ADD0E4847
:104B5000026812F0060F8ED0134A0091022116F05F
:104B6000E7F888E7531B002BB8BF5B428B4283DD1D
:104B70000548026812F0060F3FF47DAF0B4A009122
:104B8000ECE7012078E700BF60520120866706004D
:104B900000408F40AE6706004083012000BA3CDC35
:104BA000E3670600404B4C00246806005568060089
:104BB000000059402DE9F04F87B0854C02AF2368C3
:104BC0008BB98448036813F0060F03D00221824A90
:104BD00016F0ACF84FF40050002116F0BDF8143771
:104BE000BD46BDE8F08F7D4E30681EF093F830B9B9
:104BF000784803685A07EDD0794A0121E8E723781D
:104C00002BB9744803685B07E4D0764AF5E74FF4A4
:104C10007A75B5FBF3F50D2D33DD4FF4004C40F202
:104C2000E73000210D3D4FF47A720023C5FB0C01E3
:104C3000FCF75AF816F090F816F081F87E22002161
:104C4000054669481EF099FE7E226749306816F0D5
:104C500099F8664B1A6801321A600346A0B16420C5
:104C600092FBF0F100FB11210029B8D159480168ED
:104C700011F0060FB3D0022100925D4A16F058F8E9
:104C8000ADE700200146D5E77D21574B5A5C002A4D
:104C900000F0858001315448FFF76CFD554E564BAE
:104CA0003268196896F817C08A4298D0DFF85CA17C
:104CB0001A60DAF80020337D0132012BCAF8002097
:104CC00071D93046FFF7C6FE01224C4B1A7032688C
:104CD0005A60F2699A60B269DA60F26B1A61002870
:104CE0003FF47DAFDFF82891DFF82881D9F8003054
:104CF0001BB9C9F80050C8F800303E48FCF770F9FD
:104D0000D8F80060D9F800300136C8F80060002BF0
:104D10003FF465AF42F20F72EB1A93427FF65FAF3A
:104D20003046FBF7DFFB0022354BFBF76FFD0B46F0
:104D30000246DFF8E4C0DFF89CB0CCE90023DBF8E2
:104D4000003003F00703022B21D92368C7F804D0F1
:104D5000FB60DAF800308CB0BB6002AC294B00225B
:104D600063610023FBF772FAFB682246C4E9083648
:104D7000BB68C4E90601A36207234FF4635142F8FC
:104D8000103F5846002315F0CFFFD7F804D000237A
:104D9000C9F80050CAF80030C8F800301FE70139E0
:104DA000BFF474AF1BE7322192FBF1F001FB10223C
:104DB000002A7FF414AF0748026802F00702022AB3
:104DC0007FF60DAF0321104ACDF800C056E700BFB3
:104DD000E44501206052012087680600E04501207B
:104DE000A7680600CE68060041B10120308301208B
:104DF000F8680600E9AF01203883012040830120D4
:104E00000000244018690600506906003483012020
:104E1000288301202C830120105601202DE9F04F1A
:104E2000034606464FF0000985B08A4602AF0A39AC
:104E3000494507D85448036813F0060F44D00221AF
:104E4000524A3FE013F8010B09F10102B52840F086
:104E500098801878622840F094805878062840F0AE
:104E6000908098788B2840F08C80DFF81C81D8F8EF
:104E7000003003F00703022B05D94B4603214046BF
:104E8000434A15F04FFF06EB09046379257945EA9B
:104E90000325D8F8003003F00703022B05D92B4671
:104EA00003213C4A384815F03DFF4D4405F1080206
:104EB0009245D8F8003009D213F0060F04D0022131
:104EC000354A314815F032FF002018E003F007039F
:104ED000022B07D9E279A379032100922A482F4AAD
:104EE00015F026FFDFF8D090DFF8D0A0DFF8D0B0C3
:104EF0000635C6F10F0323449D4204D201200C372E
:104F0000BD46BDE8F08F237BE27A1B0443EA02230F
:104F1000A27A1343627B43EA02634B452DD003EB35
:104F20000A02052A2BD81E4951F82200D8F8002081
:104F300002F00702022A1ED994F80EC0194A1A4933
:104F4000C7F804D08CB0BCF1000F08BF114602AA0C
:104F5000DFF870E0C2E90731144BC2E905E0C2E9AD
:104F600009CB4FF4635142F8103F0748002315F076
:104F7000DBFED7F804D00534BBE70D48D6E70D4873
:104F8000D4E7914654E700BF60520120296A060029
:104F900086690600A9690600C9690600E36906007A
:104FA000C04F0600CC9706006E9706000600000270
:104FB000766906007E6906001F003110DFFFCEEF24
:104FC00000020204026A06002DE9F04FADF6140D4E
:104FD000DFF838A302AFDAF800001DF09BFEB74CF3
:104FE0008146236870B95D0704D001212046B44A88
:104FF00015F09CFE4FF00009484607F60C07BD4629
:10500000BDE8F08F03F00703022B04D903212046EB
:10501000AC4A15F08BFE0125DFF8B0B2236803F02F
:105020000703022B05D92B460321A74AA34815F0F5
:1050300079FEBBF80420A549DAF80000083215F023
:105040008DFE034688B12268500704D00121A04A92
:105050009A4815F067FE0135042DDFD123685A0701
:10506000C8D001219B4A9548C2E715F068FE064664
:10507000DFF89C8215F063FE801BB0F5FA7F50D2FA
:1050800040F26760002115F067FE80220021404653
:105090001EF073FC80224146DAF8000015F072FE23
:1050A0000028E7D18A23062280214046FFF7CEFA66
:1050B00001282CD1236803F00703022B04D9032114
:1050C000854A7E4815F032FE4FF48040002115F0ED
:1050D00043FE236803F00703022B04D903217F4A10
:1050E000764815F023FE7E49DAF800008A880832F7
:1050F00015F034FE804618B323685B073FF47AAF9F
:1051000003460121774A6D4815F00CFE72E7013025
:10511000B0D12368590704D00121734A674815F0BC
:1051200005FE236813F0060F04D002216F4A63487E
:1051300015F0FCFD41F69A10002115F00DFE8AE7EE
:1051400015F0FDFD4546DFF8A8B1786015F0F7FDD4
:105150007B68C01AB0F5FA7F02D2B8F1320F06D1DF
:10516000236803F00703022B7BD9002670E04FF47D
:105170004D70002115F0F0FD4FF48072002158466B
:105180001EF0FBFB4FF480725946DAF8000015F070
:10519000F9FD08F101080028D8D1FF221BF80230E0
:1051A000002B00F0B7800132AE18B6F5006F06D2C2
:1051B00005F108034E49D8191EF0B8FB3546002604
:1051C00007F10803A5F10A00B042BFD913F8012B7B
:1051D000711CB52A40F0A2801A78622A40F09E80A5
:1051E0005A78062A40F09A809A788B2A40F0968066
:1051F00093F804C0DA7842EA0C2208323244AA4218
:1052000000F28C80236803F00703022B11D9EA46D1
:105210008AB002AA374BC2E90765C2E905380523FF
:105220004FF4235142F8103F2448002315F07CFD31
:10523000D54606F10803D819A91BFFF7EFFD15F0B5
:105240007EFD236803F00703022B7FF6D5AE4E46A2
:1052500043460321284A1948009515F069FD002EA0
:105260005ED1236813F0060F3FF4C4AE0221234A37
:10527000124815F05BFD002D3FF4BCAE236813F01F
:10528000060F3FF4B7AE6C4688B002AA1C4B802DC7
:1052900053611C4B28BF802593614FF400739383A7
:1052A000194B290542F8103F044807F1080341F45F
:1052B000E45115F039FDA5469CE600BF605201207F
:1052C000D36206004D6A06006A6A0600244F012078
:1052D0008B6A0600E56A0600A06A06000E6B0600EF
:1052E000044F0120386B0600B46A0600C86A060045
:1052F00068AE0120506B06008E6B0600BD6B060089
:10530000B5780600DA6B060003000001E0450120D5
:1053100068AF0120013ABFF441AF17E70E4653E7EB
:10532000236803F00703022B7FF666AE0321024ACF
:10533000024815F0FBFC5FE6FD6B060060520120A1
:1053400073B5324C236803F00703022B06D9304BA8
:10535000032120461B682F4A15F0E4FC4FF65760E6
:10536000002115F0F9FC2C4B18681DF0D3FC50B946
:1053700023685B0748D00121284A244802B0BDE8D1
:10538000704015F0D3BC0125214E236803F00703BC
:10539000022B06D903212B46214A1C48009115F007
:1053A000C7FC3078FFF70EFBC0B101221D4B1A700D
:1053B0004FF48040002115F0CFFCFFF705FE236875
:1053C00003F00703022B04D90321174A0F4815F0F5
:1053D000ADFC02B0BDE8704015F0B1BC4FF48040A8
:1053E0000021013515F0B8FC042DCED10D4B1B78F2
:1053F000002BDDD1236813F0060FD9D002210B4A10
:10540000024815F093FCD3E702B070BD6052012052
:10541000E44501202A6C0600E0450120D362060025
:10542000496C0600E8AF0120A06C0600656C060020
:105430002DE9F04F91B0009302F004030293C2F300
:10544000C2030133840705460E46DDF868800392E7
:10545000059340F0BB81041D30B1072909D86FF0D6
:105460001B0011B0BDE8F08F01F007063444C6F10F
:105470000806009B4FF000094FF0040A591E4FF038
:10548000FF334F460193CB465346CDF810900DB1F4
:10549000009820600598002800F3E8809848009A5A
:1054A000824203D397488242C0F0E080039AA4EB83
:1054B000050E92074FEA9E0000F103810F2F00F2C4
:1054C000B180002D00F0058107F140020DEB020CC8
:1054D000019A0CF8200C0CF8102C04980130049060
:1054E000E7E07A285DD84B280ED8472859D82928D4
:1054F0002DD8252852D054D820287AD02338D0F15E
:10550000000B4BEB000B74E04C382E2849D8DFE839
:1055100000F07048484848484848484848484B4880
:105520004848484848484859484B4B595959704B86
:105530006D487048184B184848827F4B48484B4884
:105540007F0000204FF0000B4FF0040A38E00122EA
:105550002A38C0B202FA00F010EA0E0F49D110F05A
:10556000625C2FD110EA020B43D06046013C5444E8
:10557000B4FBFAF40AFB04F4002D61D0A3EB050C94
:10558000A444B4453FF66BAF002868D1042B47D143
:1055900058F8043B2360042304342AE0019A013ABA
:1055A00001924FF0000B24E011F8010C6C2834D16B
:1055B000002011F8023C83466C2BC5D14FF0080A3D
:1055C0005346D3E708F1070828F00708073424F00A
:1055D0000704F8E802AB35B106982044B0423FF624
:1055E0003EAFC4E900AB4FF0000B08344FF0080A9F
:1055F000534611F8010F002878D0BBF1000F7FF45B
:1056000070AF2528F5D14FF0010B019B01330193B9
:105610004FF0040AECE7584694E700208346A5E7DC
:10562000082B02D06FF015001BE708F1070828F0DF
:105630000708B8EC027B84ED007B08230834D8E728
:1056400068B9042B02D108F10408A4E7082BE9D1BA
:1056500008F1070828F0070808F10808EDE70598A1
:105660000138059058F8040B009010E7039A900752
:1056700020D54FF0010CA4EB050E4FEA9E00BEF5BD
:10568000007FCFD20F2FCDD8F5B107F140020DEB3F
:10569000020E019AC0B20EF8200C0EF8102CBCF1CC
:1056A000000F3FF41AAF60F07F000EF8200C09F1F4
:1056B00001090137C5F108024FF6DA7E043406927B
:1056C00097E74FF0000CDAE7BCF1000F01D001368C
:1056D000EFE7029A0236002AEBD10098CDE90631B5
:1056E000FBF726FBDDE906310644E2E7631BB3F571
:1056F000806F97D245B9A6F10804E018B1E600BF63
:10570000C842060094C50600029A9B0828602B70C8
:105710009DF81030C2B1EB7085F80290B9F1000F1E
:1057200005D0002208A8C5F1010C97420ED14FF018
:10573000000AC5F101030DF1200801930DF1300BB2
:10574000574512D1601B8CE66B70E5E710F8013B02
:10575000190608D50CEB040EB64503F07F033FF69F
:105760007EAE04F8013B0132DFE7B9F1000F03D050
:1057700098F90020002A17DB029BD3B11AF80B20FE
:1057800004F8012B0022019B18191044B0423FF687
:1057900066AE98F80000009904F8010B20460392C9
:1057A0001EF0C4F8039A14440AF1010A08F1010832
:1057B000C6E798F8002055F822300093029B009825
:1057C00045F82230FBF7B4FA421CDCE76FF00D001D
:1057D00047E600BF2DE9F04F97B000AFD7F880B093
:1057E0003B62CBF3C0030446894690F802A0FA62FC
:1057F000BB6141B9457800780AEB800020444D45F3
:1058000017D8A0EB0409E378FB61BAF1000F02D0CE
:105810001BF0010F16D1FB6953BBFB6A1BB1494654
:1058200020463A6A98474D4628465C37BD46BDE853
:10583000F08F461C3046FBF77BFA0130304409F10B
:105840000109DCE7626823787A62FA6A9900796173
:1058500004EB8301002A40F005810E464FF000085A
:105860004D4601EB0A094E4550D101EB0A0610E006
:105870001BF0020FD1D023789A007A61626804EBA2
:1058800083017A62FA6A002A7BD14D46904601EB89
:105890000A061BF0050F0CBF02230123FB62FB6904
:1058A00006EB430A0BF00203BB625645BCD016F868
:1058B000021B16F8013C54F823909B4B994502D3E8
:1058C0009A4B99453AD3BB69002B44D0786A15F0BE
:1058D00031FE00283FD09648036813F0060F13D01E
:1058E000E9468AB06A46934B53617B6AC2E9063146
:1058F0004FF400731384904B42F8103F00234FF491
:10590000125101F031FACD46023DCEE716F8013BC7
:10591000F96254F82300FBF70BFAD7F88430F96AE0
:1059200001304BB1D7F8883098453EBFD7F8843066
:1059300023F8180008F10108054494E7BB6923B176
:10594000786A15F0F7FD0028C5D11BF0010F05D1CD
:10595000FB6AED1AA9E7BB6A002BA6D04846FBF705
:10596000E7F9D7F8843053B1D7F8883098453FBF6E
:10597000D7F88420431C22F8183008F101080544A8
:1059800093E7BAF1000F73D01BF0040673D0D04632
:10599000002607F1480052463B61B9621DF0C6FF80
:1059A000B96A3B6901EB0A02BA62FA69F969520005
:1059B000FA60BA6A02EB41023A610BF00202BA6085
:1059C0003A69B96A8A4258D162781BF0020F18BF4F
:1059D00000217A6208BF4FEA5801B2181BF0010F8C
:1059E000D2B240F09F801BF0040F14BF404600204D
:1059F000BB616270A070E17020463A6A7969FB6A07
:105A00009847051EFFF610AFBB69414623707B6ABD
:105A10003A6A6370FB6984F802A0E37007F14800FA
:105A2000FB6A9847B0F10008C0F2BA807B69A9EB25
:105A30000A01C91AFB683A6AC91AD7E90A039847E2
:105A40000028C0F2AF804FF0000BA84408EB00051F
:105A500007F1380AB34571D300213A6A0846FB6A58
:105A60009847E1E656464FF0000807F1380092E704
:105A70005646D04696E7B04694E7BA6A12F8021B3B
:105A800012F8015CBA6254F82500274A904202D30A
:105A9000264A90421ED3BA6932B1786A7B6015F00B
:105AA00049FD7B6800288BD1BA6802BB08F1280247
:105AB00007F1300C08F10100944407F1580208F195
:105AC000020852FA80F00CF8101C5FFA88F800F80F
:105AD000105C75E7BA693AB1786A7B6015F02AFD07
